:020000040800F2
:100000007840002045010008351B0008371B000818
:100010003B1B00083F1B0008431B000800000000BA
:10002000000000000000000000000000471B000866
:10003000491B0008000000004B1B00084D1B000876
:100040005F0100085F0100085F01000839650008D2
:100050005F0100085F0100085F0100085F01000800
:100060005F0100085F0100085F0100085F010008F0
:100070005F0100085F0100085F0100085F010008E0
:100080005F0100085F0100085F0100085F010008D0
:100090005F0100085F0100085F0100085F010008C0
:1000A0005F0100085F0100085F0100085F010008B0
:1000B0005F0100085F0100085F0100085F010008A0
:1000C0005F0100085F0100085F0100085F01000890
:1000D0005F0100084F1B0008A51B0008F34500083E
:1000E0005F0100085F0100085F0100085F01000870
:1000F0005F0100085F0100085F0100085F01000860
:100100005F0100085F0100085F0100085F0100084F
:100110005F0100085F0100085F0100085F0100083F
:100120005F0100085F0100085F0100085F0100082F
:10013000DFF80CD006F0CEFE00480047FF1600089E
:10014000784000200648804706480047FEE7FEE763
:10015000FEE7FEE7FEE7FEE7FEE7FEE7FEE7FEE777
:1001600047020008310100080CB500200190009002
:100170006C48006840F480306A49086000BF6948F4
:10018000006800F4003000900198401C0190009835
:1001900018B90198B0F5A06FF1D16248006800F479
:1001A000003010B10120009001E000200090009884
:1001B000012843D15C48006840F010005A490860AB
:1001C0000846006820F0030008600846006840F018
:1001D0000200086053484068524948600846406839
:1001E00048600846406840F48060486008464068BF
:1001F00020F47C1048600846406840F4E8104860ED
:100200000846006840F08070086000BF45480068FC
:1002100000F000700028F9D04248406820F0030048
:10022000404948600846406840F00200486000BF0E
:100230003C48406800F00C000828F9D10CBD10B50E
:10024000FFF792FF10BD10B53648006840F001007E
:1002500034490860084640683449084031494860DC
:1002600008460068324908402E4908600846006880
:1002700020F4802008600846406820F4FE004860B2
:100280004FF41F008860FFF7DAFF4FF00060294944
:10029000086010BD10B5002100200022214B5B68D2
:1002A00003F00C0121B1042906D0082928D107E068
:1002B000214B224C236027E01F4B204C236023E07E
:1002C000184B5B6803F47010164B5B6803F48032C4
:1002D000022303EB904022B9194B4343174C236090
:1002E0000DE0104B5B6803F4003323B1144B434320
:1002F000124C236003E0104B4343104C236003E097
:100300000D4B0E4C236000BF00BF064B5B68C3F370
:1003100003130C4CE15C094B1B68CB40074C23607A
:1003200010BD000000100240002002400000FFF855
:10033000FFFFF6FE08ED00E000127A00000000204A
:1003400000093D000400002031490143314A116099
:10035000704770B5002100230F22C47804B32D4CE0
:10036000246804F4E064C4F5E064210AC1F10403E4
:10037000CA40447804FA03F1847814402143090107
:10038000254C0678A155047804F01F050124AC40E3
:1003900005786D11AD0005F1E025C5F8004109E0D3
:1003A000047804F01F050124AC401C4D067876113A
:1003B00045F8264070BD1A4A0A400243154B1B1FE0
:1003C0001A60704739B1134A121D12680243114B6B
:1003D0001B1D1A6006E00F4A121D126882430D4B66
:1003E0001B1D1A607047042808D14FF0E0210969ED
:1003F00041F004014FF0E022116107E04FF0E021ED
:10040000096921F004014FF0E022116170470000FA
:100410000000FA050CED00E000E400E080E100E0FF
:1004200080FFFF1F10B5012000F014FC002000F039
:1004300011FC10BD2A49086070472949091F08604E
:100440007047274984310860704701460020254ADB
:1004500010884FF67F4210400843224A10807047B0
:10046000014600201F4A10884FF680721040084352
:100470001C4A1080704708B500220092194A2C3A95
:100480000092009A02440092009A116008BD08B5DB
:1004900001460020009013482C3800900098084432
:1004A00000900098008808BD0D489C300068C0B2DC
:1004B00070470C480830008840F0010009490831B5
:1004C000088070470648A0300068C0B270470548F1
:1004D0000830008840F00200024908310880704767
:1004E00004860D422C6C004010B50446CC48844272
:1004F00008D10121042000F093FB0021042000F02A
:100500008FFB46E0C748844208D10121082000F053
:1005100087FB0021082000F083FB3AE0C2488442B8
:1005200008D10121102000F07BFB0021102000F0F9
:1005300077FB2EE0BD48844208D10121202000F045
:100540006FFB0021202000F06BFB22E0B8488442C2
:1005500008D10121402000F063FB0021402000F081
:100560005FFB16E0B348844208D10121802000F0EF
:1005700057FB0021802000F053FB0AE0AE48844284
:1005800007D10121801500F04BFB0021A01500F0E0
:1005900047FB10BD10B50121084600F041FB0021CA
:1005A000012000F03DFB10BD2DE9F0410246002581
:1005B0000026002000230024002791F803C00CF03F
:1005C0000F0591F803C00CF0100CBCF1000F03D024
:1005D00091F802C04CEA050591F800C0BCF1000F8B
:1005E00031D0146800202BE04FF0010C0CFA00F31E
:1005F000B1F800C00CEA03069E4220D183004FF000
:100600000F0C0CFA03F7BC4305FA03FC4CEA040494
:1006100091F803C0BCF1280F06D14FF0010C0CFA81
:1006200000FCC2F814C00AE091F803C0BCF1480F06
:1006300005D14FF0010C0CFA00FCC2F810C0401CB0
:100640000828D1D31460B1F800C0BCF1FF0F34DD2D
:10065000546800202EE000F1080C4FF0010808FA61
:100660000CF3B1F800C00CEA03069E4221D18300CE
:100670004FF00F0C0CFA03F7BC4305FA03FC4CEAED
:10068000040491F803C0BCF1280F05D100F1080C57
:1006900008FA0CF8C2F8148091F803C0BCF1480FB6
:1006A00007D100F1080C4FF0010808FA0CF8C2F865
:1006B0001080401C0828CED35460BDE8F0814FF66E
:1006C000FF710180022181700421C17070470246D0
:1006D000002093680B400BB1012000E00020704720
:1006E0000146886880B2704702460020D3680B40FC
:1006F0000BB1012000E0002070470146C86880B2BD
:10070000704701617047416170470AB1016100E0C3
:1007100041617047C16070474FF480320A43826183
:100720008161826182698269704702460020434B81
:1007300018684FF68073184040EA021008433F4B98
:10074000186070473E49C8617047F0B50A460023FB
:1007500000240021002500F00046B6F1004F02D130
:10076000364EF16901E0354E7168C0F3034583B23E
:1007700000F44016B6F5401F08D121F070612F4EED
:10078000766826F070662D4F7E6012E000F48016C9
:10079000B6F5801F06D1032606FA05F4A14341F001
:1007A000706106E0460D360103FA06F6B14341F0EA
:1007B000706122B1460D360103FA06F6314300F0AE
:1007C0000046B6F1004F02D11C4EF16101E01B4E14
:1007D0007160F0BD30B500228B071C0F0F2303FAA8
:1007E00004F2164B08338C1053F824309343134C07
:1007F00008348D1044F8253023468C1053F82430EB
:100800008C07240F00FA04F423430C4C08348D1099
:1008100044F8253030BD0A49DC31086070470000DB
:1008200000080140000C014000100140001401408C
:1008300000180140001C0140002001400000014060
:100840000000204210B50121080700F0F6F9002150
:100850004FF0805000F0F1F910BD2A49086270474E
:1008600028490861704701460020274A106820F097
:10087000E0000843106070472249A03108607047CB
:1008800010B502460020204B186820F003001043EA
:1008900018601E4B1B6843F004031C4C23600129A5
:1008A00001D130BF00E020BF184B1B6823F00403C8
:1008B000164C236010BD1448006840F00400124933
:1008C00008600846006840F0020008600F480068B1
:1008D00040F004000D49086000BF00BF30BF704702
:1008E00001460020084A52680A400AB1012000E08F
:1008F000002070470449096841EA8001024A1160FA
:100900007047000000000E420070004010ED00E053
:10091000DF48006840F00100DD4908600846406893
:10092000DC490840DA49486008460068DA4908406E
:10093000D74908600846006820F48020086008460F
:10094000406820F4FE0048604FF41F008860704744
:10095000CF49096821F48031CD4A116011460968F8
:1009600021F480211160B0F5803F03D0B0F5802FD5
:100970000ED106E0C649096841F48031C44A1160CD
:1009800007E0C349096841F4A021C14A116000E0B1
:1009900000BF00BF704710B50146002200230020B1
:1009A0004A11012A02D1BA4C236806E0022A02D178
:1009B000B74C236A01E0B64C636A01F01F020124C0
:1009C00094401C400CB1012000E0002010BD38B55F
:1009D000002000900024002500BF3120FFF7DBFF3E
:1009E00005460098401C00900098B0F5A06F01D01B
:1009F000002DF2D03120FFF7CEFF08B1012400E036
:100A00000024204638BD01460020A14A106820F08D
:100A1000F80040EAC10010607047A04908607047C4
:100A2000024600209A4B586820F47C1042EA0103E9
:100A30001843974B586070479849086670470146BD
:100A40000020934A506820F003000843506070472C
:100A50008F48406800F00C007047014600208C4A27
:100A6000506820F0F00008435060704701460020B5
:100A7000874A506820F4E0600843506070470146A0
:100A80000020834A506820F4605040EAC100506062
:100A9000704729B17E4A527A02437D4B5A7204E074
:100AA0007B4A527A82437A4B5A7270477B49D831DB
:100AB0000860704701460020754A506820F44040A5
:100AC0000843506070470021714A20321170704A0B
:100AD00082F82010012802D004280AD104E0012164
:100AE0006B4A2032117005E00521694A20321170ED
:100AF00000E000BF00BF7047694908607047644963
:100B0000096A0143624A11627047654944390860C5
:100B1000704730B500210022002400235C4D6D6831
:100B200005F00C0121B1042905D0082923D105E0E5
:100B30005C4D056022E05B4D05601FE0544D6D6823
:100B400005F47012524D6D6805F48034022505EBF2
:100B500092421CB9544D554305600BE04C4D6D68F5
:100B600005F400351DB1504D5543056002E04D4D73
:100B70005543056002E04B4D056000BF00BF444D8A
:100B80006D6805F0F0010909484D6B5C0568DD40B2
:100B900045603F4D6D6805F4E061090A434D6B5CAB
:100BA0004568DD4085603A4D6D6805F46051C90ABD
:100BB0003E4D6B5C4568DD40C560354D6D6805F4A4
:100BC0004041890B3A4D6B5CC568B5FBF3F5056197
:100BD00030BD29B12E4A526902432D4B5A6104E0BF
:100BE0002B4A526982432A4B5A61704729B1284ADD
:100BF00092690243264B9A6104E0254A9269824336
:100C0000234B9A61704729B1214AD2690243204B94
:100C1000DA6104E01E4AD26982431D4BDA617047F3
:100C200029B11B4AD2680243194BDA6004E0184A22
:100C3000D2688243164BDA60704729B1144A1269B0
:100C40000243134B1A6104E0114A12698243104BAC
:100C50001A61704712494039086070470F49C864EB
:100C600070470B49C87170470948406A40F080706E
:100C700007494862704701460020054A92680A40C9
:100C80000AB1012000E000207047014988727047D6
:100C9000001002400000FFF8FFFFF6FE0000424295
:100CA0008004424200127A0000093D001400002036
:100CB0002400002029B1504A128802434E4B1A806A
:100CC00004E04D4A128882434B4B1A8070474A48D1
:100CD000001D008840F010004749091D088070473A
:100CE0004548001D00884FF6EF7108404249091D34
:100CF00008807047002140481C300188001F008890
:100D000041EA0040704700B50246FFF7E0FF100CD3
:100D1000394918310880091D0A80FFF7E1FF00BD3D
:100D200000B50246FFF7D3FFC2F303403249083152
:100D30000880091D0A80FFF7D3FF00BD00B50246F9
:100D4000FFF7C5FF100C2C4920310880091D0A80CF
:100D5000FFF7C6FF00BD00202749103109880907A9
:100D6000080B2549143109880843704700BF224801
:100D7000001D008800F020000028F8D070471E48B1
:100D8000001D00884FF6F77108401B49091D0880B7
:100D900000BF1948001D008800F008000028F8D0A6
:100DA000704701460020144A121D12880A400AB1F9
:100DB000012000E0002070470F49091D0988814388
:100DC0000D4A121D11807047014600200A4A121D6B
:100DD00012880A40D0B2084A12880A4012B108B1FB
:100DE000012000E0002070470349091D0988814364
:100DF000014A121D118070470028004010B50446BA
:100E0000BE48844208D101218014FFF709FF002168
:100E1000A014FFF705FF16E0B948844208D101216C
:100E20000014FFF70AFF00212014FFF706FF0AE075
:100E3000B448844207D10121C013FFF7FEFE002110
:100E4000E013FFF7FAFE10BD10B50022028802F48D
:100E500041520B884C8823438C882343CC882343FE
:100E60000C8923434C8923438C892343CC89234316
:100E70001A430280838B4FF2FF74234083830B8AD3
:100E8000038210BD2DE9F04F85B005460C464FF0AA
:100E9000000902274FF000084FF0010B0026B24670
:100EA000A88B4FF240010840A88302202884B5F89F
:100EB0001C90A068022801D100BF38E0A08810B9BA
:100EC0004FF0010B01E04FF0020B8D48854200D13D
:100ED00000E000BF6846FFF71CFEDDF800A0E088D8
:100EE000B0F5007F0AD14FEA1A2000EB80004000E5
:100EF000A168B0FBF1F0401D86B20BE04FEA4B1049
:100F0000BAFBF0F000EB80004000A168B0FBF1F00C
:100F1000401D86B20A20B6FBF0F606F00108A6EBEB
:100F20000800C0F34F074FF6FF7000EA0828022FB1
:100F300001DBFF2F02DD02274FF00008E08840EAC6
:100F4000080038432884A088A189084361880843A1
:100F50002188084340F4006040EA0909A5F81C9084
:100F600005B0BDE8F08F0021018041808180C18003
:100F7000018141818181C181072101827047002166
:100F8000018041808180C1800221816000218181B6
:100F9000704721B1028842F04002028004E00288DA
:100FA0004FF6BF731A400280704721B1828B42F422
:100FB0008062828304E0828B4FF6FF331A40828383
:100FC000704730B5002400230C110125A540ABB2B9
:100FD0001AB185881D43858002E085889D43858000
:100FE00030BD1AB183880B43838002E083888B4332
:100FF00083807047818170470146888970474FF62A
:10100000FF62914204D0028842F48072028004E0C0
:1010100002884FF6FF631A400280704721B1828830
:1010200042F00402828004E082884FF6FB731A408B
:101030008280704702884FF2FF731A400280028854
:101040000A4302807047018841F480510180704753
:1010500021B1028842F40052028004E002884DF679
:10106000FF731A400280704702460020012901D018
:10107000108B00E0908A70470146088A7047B1F5EE
:10108000804F04D1028842F48042028004E002884A
:101090004BF6FF731A400280704702460020138906
:1010A0000B400BB1012000E000207047CA430281D1
:1010B0007047F0B50246002000240023002501F00F
:1010C0000F070126BE40B4B20B1101269E40B3B2F9
:1010D000968806EA03051689264016B10DB101204F
:1010E00000E00020F0BD10B5002201F00F04012344
:1010F000A3409AB2D343038110BD000000300140E9
:1011000000380040003C004010B50446FB488442D3
:1011100009D101218803FFF783FD00214FF48040AE
:10112000FFF77EFD32E0F648844209D101214804F0
:10113000FFF783FD00214FF40030FFF77EFD25E02F
:10114000F048844209D101218804FFF776FD00218F
:101150004FF48020FFF771FD18E0EB48844209D17D
:101160000121C804FFF769FD00214FF40020FFF7BB
:1011700064FD0BE0E548844208D101210805FFF732
:101180005CFD00214FF48010FFF757FD10BD2DE9E5
:10119000F04786B005460E460024A24600BFA14691
:1011A0000027B08900B100BF2F462C8A4CF6FF7093
:1011B0000440F08804432C82AC894EF6F3100440BE
:1011C000B08831890843718908430443AC81AC8AF3
:1011D0004FF6FF400440B0890443AC8201A8FFF7FA
:1011E00098FCC648874202D1DDF810A001E0DDF886
:1011F0000CA0A88900F4004040B10AEBCA0000EB43
:101200000A1031684900B0FBF1F807E00AEBCA00A8
:1012100000EB0A1031688900B0FBF1F86420B8FBDC
:10122000F0F004012009642101FB1089A88900F471
:10123000004040B1322000EBC900B0FBF1F000F0FB
:101240000700044308E0322000EB09106421B0FBE2
:10125000F1F000F00F0004432C8106B0BDE8F087E8
:101260004FF41651016000218180C18001810C2161
:10127000418100218181704710B502460020108A0B
:101280004FF2FF0318400B884C8823438C8823437C
:10129000CC8823431843108210BD00210180418077
:1012A0008180C180704721B1828942F400528281DD
:1012B00004E082894DF6FF731A4082817047F0B5D1
:1012C0000346002400260025002040F66A17B94294
:1012D00000D100BF1846C1F3421401F01F060127D8
:1012E00007FA06F5012C01D10C3004E0022C01D1E3
:1012F000103000E014301AB107682F43076002E095
:101300000768AF430760F0BD1AB1838A0B4383823D
:1013100002E0838A8B4383827047028A4FF6F07320
:101320001A400282028A0A430282704782894FF27F
:10133000FF731A40828182890A438281704721B1FA
:10134000828942F00202828104E082894FF6FD73B5
:101350001A4082817047028A4FF6DF731A40028278
:10136000028A0A430282704721B1028A42F4804213
:10137000028204E0028A4BF6FF731A400282704731
:10138000C1F308028280704701468888C0F30800D4
:101390007047818941F0010181817047028BD2B28F
:1013A0000283028B42EA012202837047028B02F41D
:1013B0007F420283028B0A430283704721B1828AF3
:1013C00042F02002828204E0828A4FF6DF731A40E4
:1013D0008282704721B1828A42F01002828204E048
:1013E000828A4FF6EF731A408282704721B1828A57
:1013F00042F00802828204E0828A4FF6F7731A40B4
:101400008282704721B1828942F40042828103E0E6
:101410008289C2F30E028281704721B1828A42F42E
:101420000062828204E0828A4FF2FF731A40828255
:101430007047828A4FF6FB731A408282828A0A437F
:101440008282704721B1828A42F00202828204E0E5
:10145000828A4FF6FD731A4082827047024600204E
:10146000B1F5007F00D100BF13880B400BB1012004
:1014700000E00020704701F40072B2F5007F00D157
:1014800000BFCA430280704770B5024600240023A3
:101490000025002040F66A16B14200D100BFC1F31A
:1014A000421501F01F03012606FA03F3012D02D1B4
:1014B0009689334006E0022D02D1168A334001E0BE
:1014C000968A33400C12012606FA04F4168834403A
:1014D00013B10CB1012000E0002070BD10B5002256
:1014E000002340F66A14A14200D100BF0A12012471
:1014F0009440A3B2DC43048010BD000000380140DA
:101500000044004000480040004C004000500040B3
:1015100010B505F0D9F804F07BF803F0ABFFFAA0A2
:1015200005F034FF10BD10B5FE48007838B9FFF75C
:10153000EFFF0120FB490870FBA005F027FF10BD5D
:1015400010B5F848007828B10020F6490870FCA0D2
:1015500005F01CFF10BD10B58CB001AA03A906A8A8
:1015600003F0E4FB04462046611C4CB20CB010BDF5
:1015700000B58BB0F8480068002806DDF648F7A1F2
:10158000026807A805F012FF03E0F6A107A805F01E
:101590000DFFF6480068002806DDF448F4A1026853
:1015A00003A805F003FF03E0F4A103A805F0FEFE85
:1015B0000020102107AA4FF6E073CDE90021029028
:1015C0001F224D21642001F00FFA0020102103AAF0
:1015D0004FF6E073CDE9002102901F2261216420C3
:1015E00001F002FA0BB000BDFEB5E74D0026002465
:1015F0001DE000BFE54800680128FBD0E44A02EB8B
:101600008401E44A02EB840003F092FFE14850F8C1
:101610002400A84202D2DF4850F82450DD4850F898
:101620002400B04202D9DB4850F82460641CB4F5B1
:10163000FA7FDEDBD848C849D84ACC4BCDE9002137
:101640000290D44A4FF4FA71D14803F019FDFEBD5F
:1016500010B5D34890F80204012823D10021D048C6
:101660000288801C8154CFA1D44800F0A5FBCC494E
:10167000891CD24800F0A0FBD1A1D04800F09CFB0F
:10168000D0A1D64800F098FBC549891CD34800F08A
:1016900093FBCBA1D14800F08FFB0020C04981F81B
:1016A00002040880CE4890F8020401280DD1C5A19B
:1016B000C24800F081FBCA49891CC04800F07CFB8D
:1016C0000020C74981F80204088010BD08B5012137
:1016D0000420FFF78BFA10208DF8030003208DF80B
:1016E00002004FF4F870ADF800006946BD48FEF7FF
:1016F0005BFF4FF4F871BB48FFF703F808BD08B56E
:10170000FEF7A1FD482004F089FFFFF7DFFF00F09E
:10171000C4FA00F09CFB01F07EFB02F05CFC02F0DE
:1017200028FD02F0D1FF00F071FA04F011FF4FF034
:10173000FF34C5E0FFF70FFFFFF78AFF0121A9483B
:1017400000F07FFA012804D14FF4F871A548FEF7A4
:10175000D8FF4FF40051A44800F073FA012804D1D7
:101760004FF4F8719F48FEF7CEFF6E48007818B12D
:10177000FFF73AFFFFF7FCFE9CA19948801C05F09B
:101780008CF960B95CB100244FF6FF7001F0AEFA3D
:1017900097A001F083FD9A4804F0BCFE87E099A170
:1017A0008F48801C05F079F9A8B9012C13D00124C9
:1017B0004FF6FF7001F09AFAFFF7CDFE054692A0B2
:1017C00001F06CFD10200A232A46782100903C206D
:1017D00000F025FF6BE090A18148801C05F05DF9C9
:1017E00050B9022C08D002244FF6FF7001F07EFAA7
:1017F0008AA001F053FD5AE08AA17948801C05F0C7
:101800004CF950B9032C08D003244FF6FF7001F0B7
:101810006DFA85A001F042FD49E087A17048801C67
:1018200005F03BF928B9042C03D00424FFF77BFE14
:101830003DE082A16A48801C05F02FF928B9052CEB
:1018400003D00524FFF77CFE31E07DA16448801CB5
:1018500005F023F950B9062C08D006244FF6FF7086
:1018600001F044FA77A001F019FD20E077A15C486F
:10187000801C05F012F950B9072C08D007244FF648
:10188000FF7001F033FA72A001F008FD0FE072A1C1
:101890005348801C05F001F948B9082C07D00824EA
:1018A0004FF6FF7001F022FA6CA001F0F7FC1CB9B2
:1018B000534804F02FFE03E0042C01D1FFF733FE60
:1018C00038E73EB549A14648801C05F0E6F830B936
:1018D00047A001F0E3FC4A4804F01CFE17E149A1CF
:1018E0003F48801C05F0D9F860B9FFF734FEC4B258
:1018F00045A001F0D3FC012010214FF6FF734FF6F5
:101900001F02AFE0B6E000000D0A4D415833303100
:10191000303220496E697469616C697A65640D0AB8
:10192000000000003F0000204D6561737572656D19
:10193000656E7420537461727465640D0A00000052
:101940004D6561737572656D656E742053746F704B
:101950007065640D0A0000003800002048523A25E6
:101960003364000048523A3736000000300000204F
:1019700053504F323A2533640000000053504F3229
:101980003A31313400000000FFFF0300148121428E
:1019900024070020F40E00203C000020340000202A
:1019A000C41600200D0A72656376205553415254C7
:1019B0003120646174613A0D0A0000000038014072
:1019C0000D0A00000D0A726563762048432D3035FC
:1019D00020646174613A0D0A000000000044004078
:1019E000C81A0020000801400010014030300000FB
:1019F000B5B1C7B0CAB1BCE4B2E2CAD400000000BD
:101A00005C2F002030310000BDF1C8D5B2BDCAFD49
:101A1000B2E2CAD40000000030320000475053B692
:101A2000A8CEBB0030330000D0C4C2CAD1AAD1F5C1
:101A3000B2E2C1BF000000003034000030350000C9
:101A400030360000B2E2CAD4320000003037000065
:101A5000B2E2CAD43300000030380000B2E2CAD487
:101A600034000000CDE9004102907821002001F00F
:101A70003FF84CE0AFF26001254805F00EF820B9C0
:101A8000AFF2680001F00AFC41E0AFF268012048C3
:101A900005F003F818B91FA001F000FC37E0AFF221
:101AA00068011B4804F0F9FF28B91EA001F0F6FBFD
:101AB000FFF739FD2BE0AFF27C01154804F0EDFF94
:101AC00028B91AA001F0EAFBFFF73AFD1FE0AFF2D8
:101AD00090010F4804F0E1FF20B9AFF2980001F047
:101AE000DDFB14E0AFF29C01094804F0D6FF20B9F9
:101AF000AFF2A40001F0D2FB09E0AFF2A401044868
:101B000004F0CBFF18B9AFF2AC0001F0C7FB3EBD4B
:101B1000CA1A0020D0C4C2CAD1AAD1F5B2E2C1BF4C
:101B200020000000C8B7C8CF00000000B7B5BBD880
:101B300000000000704700BFFEE700BFFEE700BFE7
:101B4000FEE700BFFEE7704770477047704710B56B
:101B500040F225512948FFF797FCA8B12748FFF725
:101B600013FCC4B226480088B0F5806F0CDA0A2C4A
:101B70000AD00D2C08D022480188801C4454801EB5
:101B80000088401C1E49088040F224411B48FFF792
:101B90007BFC012805D11A4981F802041748FFF798
:101BA000F3FB10BD10B540F225511648FFF76CFC51
:101BB000A8B11448FFF7E8FBC4B213480088B0F599
:101BC000806F0CDA0A2C0AD00D2C08D00E48018840
:101BD000801C4454801E0088401C0B49088040F241
:101BE00024410848FFF750FC012805D1064981F837
:101BF00002040448FFF7C8FB10BD00000038014094
:101C0000C416002000440040C81A002008B5012175
:101C10001420FEF7EBFF0120ADF8000004208DF842
:101C2000030069461148FEF7BFFC4FF40050ADF8C1
:101C3000000004208DF8030069460D48FEF7B4FC4F
:101C400008BD70B504460D4629462046FEF73FFD07
:101C5000012808D100BF29462046FEF738FD01289B
:101C6000F9D0012070BD0020FCE700000008014011
:101C70000010014008B54FF4A060FEF765FB252079
:101C80008DF8000001208DF801008DF802008DF81C
:101C900003006846FEF75DFB08BD00B585B0012175
:101CA0000420FEF7A3FF01218803FEF79FFF4FF4F6
:101CB0000070ADF8100018208DF8130003208DF887
:101CC000120004A95648FEF76FFC4FF48060ADF88F
:101CD000100004208DF8130004A95148FEF764FC9D
:101CE0004FF4E13000900020ADF80400ADF806009C
:101CF000ADF80800ADF80C000C20ADF80A006946FC
:101D00004848FFF744FAFFF7B5FF012240F225519A
:101D10004448FFF7D4FA012240F224414148FFF73A
:101D2000CEFA01213F48FFF7BEFA05B000BD70B5FD
:101D300004460D4629462046FFF722FB00BF8021BE
:101D40002046FFF78BFB0028F9D070BD2DE9F0414C
:101D500005460C46260AE7B231462846FFF710FB37
:101D600000BF80212846FFF779FB0028F9D03946CB
:101D70002846FFF705FB00BF80212846FFF76EFBD2
:101D80000028F9D0BDE8F0812DE9F04107460D4665
:101D90001646002405E0295D3846FFF7C8FF601CA1
:101DA000C4B2B442F7DB00BF40213846FFF756FB10
:101DB0000028F9D0BDE8F08170B506460C46002534
:101DC00000BF615D3046FFF7B2FF681CC5B2605DC1
:101DD0000028F6D100BF40213046FFF73FFB002826
:101DE000F9D070BD70B504460D46E1B20D48FFF75D
:101DF000C7FA00BF80210B48FFF730FB0028F9D05D
:101E0000204670BD10B5044600BF20210548FFF7ED
:101E100025FB0028F9D00348FFF7B6FA10BD0000F3
:101E2000000801400038014008B54FF4A060FEF7FB
:101E30008BFA26208DF8000001208DF801008DF826
:101E400002008DF803006846FEF783FA08BD00B56E
:101E500085B001214804FEF7D6FE01210420FEF7DB
:101E6000C5FE0420ADF8100018208DF813000320E3
:101E70008DF8120004A93848FEF796FB0820ADF84B
:101E8000100004208DF8130004A93348FEF78CFBE2
:101E90004FF4165000900020ADF80400ADF8060095
:101EA000ADF80800ADF80C000C20ADF80A0069464A
:101EB0002A48FFF76CF9FFF7B7FF012240F22551DE
:101EC0002648FFF7FCF9012240F224412348FFF79E
:101ED000F6F901212148FFF7E6F940211F48FFF7F5
:101EE000CAFA05B000BD70B504460D462946204625
:101EF000FFF746FA00BF80212046FFF7AFFA00281F
:101F0000F9D070BD2DE9F04107460D461646002474
:101F100000BF295D3846FFF7E6FF641CB442F8D3E2
:101F2000BDE8F08101460E48008808800C48801CFE
:101F3000704740F201400021094A118082F80214E2
:101F400006E00022411E8BB218460549891CCA547E
:101F50000028F6D17047000000080140004400400E
:101F6000C81A002070B505460E461446314628466C
:101F700000F0A6FE204600F062FE70BD2DE9F05F85
:101F800004460D4616461F46301B401C1FFA80FAB9
:101F9000781B401C1FFA80FB3B46324629462046F0
:101FA00000F064FE4FF000080FE04FF0000906E07B
:101FB0000A9800F044FE09F101001FFA80F9D145AA
:101FC000F6DB08F101001FFA80F8D845EDDBFE488A
:101FD0004088401E83B2FC480088401E82B2002127
:101FE000084600F043FEBDE8F09F2DE9FF4F85B0A5
:101FF00081468A460020049003900798A0EB0905CB
:102000000898A0EB0A06CDF80890CDF804A0002DA2
:1020100001DD012705E00DB9002702E04FF0FF3791
:102020006D42002E02DD4FF0010806E016B94FF0B8
:10203000000802E04FF0FF387642B54201DD2C4641
:1020400000E034464FF0000B21E0019A91B2029A71
:1020500090B200F03FFE0498284404900398304466
:1020600003900498A04205DD0498001B0490029898
:10207000384402900398A04205DD0398001B0390AA
:102080000198404401900BF101001FFA80FB601C95
:102090008345DADD09B0BDE8F08F2DE9F041044653
:1020A0000D4616461F462B46324629462046FFF768
:1020B0009CFF3B46224629462046FFF796FF3B46BB
:1020C000324639462046FFF790FF3B4632462946C6
:1020D0003046FFF78AFFBDE8F081F8B504460D46AB
:1020E00016461F46B94800883B46324629460090AE
:1020F0002046FFF743FFF8BD2DE9F04104460D46A9
:1021000016461F46DDF81880EA1991B2A21990B25E
:102110004246FFF727FFEA1991B2A21B90B242464E
:10212000FFF720FFEA1B91B2A21990B24246FFF7D7
:1021300019FFEA1B91B2A21B90B24246FFF712FFB1
:10214000AA1991B2E21990B24246FFF70BFFAA1901
:1021500091B2E21B90B24246FFF704FFAA1B91B274
:10216000E21990B24246FFF7FDFEAA1B91B2E21BB4
:1021700090B24246FFF7F6FEBDE8F0812DE9FF4F31
:1021800081B0824617469846DDF838B000244546AF
:102190004FEA4800C0F10306BBF1000F1FD01BE05F
:1021A000A14608E04B462246009750460299FFF7A9
:1021B000A3FF09F10109A945F4DD002E04DA04208A
:1021C00000FB0460861D06E0601B042101FB00602B
:1021D00000F10A066D1E641CAC42E1DD18E015E05A
:1021E0002B462246009750460299FFF785FF002EA6
:1021F00004DA042000FB0460861D06E0601B042155
:1022000001FB006000F10A066D1E641CAC42E7DDB4
:1022100005B0BDE8F08F2DE9F04704460D4616469F
:102220001F46DDE908893B46324629462046FFF72E
:10223000DCFE4B46424639463046FFF7D6FE2B467B
:10224000224649464046FFF7D0FEBDE8F0870288A7
:102250000B8803800A8070472DE9FF4F85B0002668
:102260000027BDF81800BDF82010884207DD08A936
:1022700006A8FFF7ECFF07A905A8FFF7E8FFBDF8E0
:102280002000BDF84C10884207DD08A913A8FFF70D
:10229000DEFF07A912A8FFF7DAFFBDF81800BDF8A6
:1022A0002010884207DD08A906A8FFF7D0FF07A97C
:1022B00005A8FFF7CCFFBDF81800BDF84C10884208
:1022C00038D1BDF8140003900490BDF81C00BDF88F
:1022D0001010884203DABDF81C00049008E0BDF835
:1022E0001C00BDF80C10884202DDBDF81C000390F4
:1022F000BDF84800BDF81010884203DABDF8480068
:10230000049008E0BDF84800BDF80C10884202DDDA
:10231000BDF8480003902D4800880090BDF81830A3
:10232000BDF80C201946BDF81000FFF727FE09B0D4
:10233000BDE8F08FBDF81C00BDF81410A0EB010B38
:10234000BDF82000BDF81810401A0290BDF84800F2
:10235000BDF81410451ABDF84C00BDF81810A0EBDC
:102360000109BDF84800BDF81C10A0EB010ABDF83A
:102370004C00BDF82010401A0190BDF82000BDF8B7
:102380004C10884202D1BDF8208004E0BDF8200046
:10239000401E1FFA80F8BDF818402CE0029896FB0A
:1023A000F0F0BDF81410084480B2049097FBF9F0E7
:1023B000BDF81410084480B203905E442F44BDF869
:1023C0001000BDF80C1003E0CC1E002040000020DF
:1023D000884203DD03A904A8FFF739FFF948008804
:1023E00023460090BDF80C202146BDF81000FFF7F1
:1023F000C5FD601C84B24445D0DDBDF82000201A24
:1024000000FB0AF6BDF81800201A00FB05F727E0CC
:10241000019896FBF0F0BDF81C10084480B20490BF
:1024200097FBF9F0BDF81410084480B203905644AD
:102430002F44BDF81000BDF80C10884203DD03A93D
:1024400004A8FFF704FFDF48008823460090BDF88A
:102450000C202146BDF81000FFF790FD601C84B2EF
:10246000BDF84C008442D3DD00BF60E72DE9FF4F8B
:1024700083B081468A469346DDE91064D1480088DE
:102480000290A6F12000C6B204EBD47009EB600004
:10249000401E82B20AEB0400401E83B251464846F9
:1024A000019400F0E3FB1298002834D100252FE0BE
:1024B0000C2C07D106EB4600C34901EB800010F855
:1024C00005800EE0402C07D1A6F10F00BF4901EBBB
:1024D000002010F8058004E0BD4800EB061010F85D
:1024E000058000270DE008F0010018B1584600F003
:1024F000A6FB02E0069800F0A2FB4FEA6808781CF1
:10250000C7B204EBD471B7EB610FECDB681CC5B24A
:10251000A542CDDB37E0002533E00C2C07D106EBDC
:102520004600A94901EB800010F805800EE0402C20
:1025300007D1A6F11000A54901EB002010F8058095
:1025400004E0A34800EB061010F80580002711E016
:102550009C48A0F800B008F0010038B10AEB050271
:1025600091B209EB070290B200F0B4FB4FEA6808A1
:10257000781CC7B204EBD471B7EB610FE8DB681CC1
:10258000C5B2A542C9DB8F490298088091484088AE
:10259000401E83B28F480088401E82B20021084648
:1025A00000F064FB07B0BDE8F08F2DE9FE4306465E
:1025B0000F4615461C46DDF828801DE0854800883A
:1025C000401EB04204DB83484088401EB84201DA16
:1025D000BDE8FE8320788DE821017F480388794893
:1025E000028839463046FFF741FF284605EBD07197
:1025F00006EB61018EB2641C20787E2802DC207814
:102600002028DBDA00BFE3E710B50246012000E036
:1026100050430B1EA1F10104E1B2F9D110BD2DE927
:10262000FF4F83B0074691461E46109C4FF0000AAC
:10263000002543E0701B401EC1B20A20FFF7E4FFF3
:10264000B9FBF0F00A21B0FBF1F201FB1208BAF17C
:10265000000F1BD1701EA84218DDB8F1000F13D176
:1026600000202021A346CDE90014029004EBDB7189
:10267000491001FB057188B257490B8851490A88F6
:102680000499FFF7F3FE17E04FF0010A002108F16B
:102690003000C0B2A346CDE90141009004EBDB71EC
:1026A000491001FB057188B24B490B8845490A88DE
:1026B0000499FFF7DBFE00BF681CC5B2B542B9DB69
:1026C00007B0BDE8F08F2DE9FC5F054688469146CE
:1026D0009A46DDF830B000954D20019000245FE06F
:1026E00004EB04103D4911F810009BF800108842DB
:1026F00053D104EB0410394901EB400040789BF8BA
:102700000110884249D108F10F0083B205F10F0092
:1027100082B24146284600F0A9FA00263BE0002795
:1027200034E00D9890B904EB04102C4901EB400003
:10273000801C805D80213941084018B1484600F076
:102740007EFA21E0504600F07AFA1DE01D48A0F81C
:10275000009004EB0410214901EB4000801C805DD7
:1027600080213941084018B14146284600F0B2FAAC
:10277000681C85B20098281A102805D1009D08F120
:1027800001001FFA80F803E0781CC7B2082FC8DBED
:1027900000BF701CC6B2202EC1DB00BF601C84B21B
:1027A000019884429CDB0B484088401E83B2094854
:1027B0000088401E82B20021084600F057FABDE8AA
:1027C000FC9F00004000002048770008AC81000812
:1027D000BC7B0008CC1E002042000020AC8E00080C
:1027E0002DE9FC5F0546884691469A46DDF830B0F3
:1027F000009507200190002467E004EB840000EBC3
:102800004410F04911F810009BF80010884259D18B
:1028100004EB840000EB4410EA4901EB40004078EF
:102820009BF8011088424DD108F1170083B205F1E1
:10283000170082B24146284600F018FA00263FE011
:10284000002738E00D98A0B904EB840000EB441099
:10285000DC4901EB4000801C805D8021394108404B
:1028600018B1484600F0EBF923E0504600F0E7F9D4
:102870001FE0D548A0F8009004EB840000EB441062
:10288000D04901EB4000801C805D80213941084027
:1028900018B14146284600F01DFA681C85B2009820
:1028A000281A182805D1009D08F101001FFA80F8A8
:1028B00003E0781CC7B2082FC4DB00BF701CC6B28F
:1028C000482EBDDB00BF601C84B20198844294DBBB
:1028D000BE484088401E83B2BC480088401E82B279
:1028E0000021084600F0C2F9BDE8FC9F2DE9FC5F1D
:1028F0000546884691469A46DDF830B0009504209A
:10290000019000245FE004EB8410B14911F810003D
:102910009BF80010884253D104EB8410AC4901EBC2
:10292000400040789BF80110884249D108F11F000F
:1029300083B205F11F0082B24146284600F096F9A5
:1029400000263BE0002734E00D9890B904EB84109A
:102950009F4901EB4000801C805D80213941084087
:1029600018B1484600F06BF921E0504600F067F9D5
:102970001DE09548A0F8009004EB8410944901EB09
:102980004000801C805D80213941084018B14146DB
:10299000284600F09FF9681C85B20098281A202864
:1029A00005D1009D08F101001FFA80F803E0781CB2
:1029B000C7B2082FC8DB00BF701CC6B2802EC1DBB7
:1029C00000BF601C84B2019884429CDB7F48408831
:1029D000401E83B27D480088401E82B20021084616
:1029E00000F044F9BDE8FC9F2DE9FF4F83B0064697
:1029F00088469146DDE91147109DB2464FF0000B25
:102A000071E0BBF1000F40D104EBD4716F4A128822
:102A1000A2EB6101B14204DB6C494988091B4145C5
:102A200002DA07B0BDE8F08F2878802802DD4FF089
:102A3000010B58E028780D2806D108EB04001FFA96
:102A400080F856466D1C1EE0102C0DDD10212878F4
:102A50008DE883004A4641463046069BFFF706FD57
:102A600006F1080086B20EE028788DE891004A460B
:102A700041463046069BFFF7F9FC204604EBD07137
:102A800006EB61018EB26D1C2DE050480088001BE2
:102A9000B04204DB4D484088001B404500DAC0E7E7
:102AA0004FF0000B202C08D1CDE900574A46414693
:102AB0003046069BFFF71AFF12E0182C08D1CDE92B
:102AC00000574A4641463046069BFFF789FE07E01D
:102AD000CDE900574A4641463046069BFFF7F3FDD5
:102AE000AD1C301986B2287800288AD100BF98E73B
:102AF0002DE9F04F85B00D4692461E46DDE90F4B9D
:102B00000E9F384603F0C2FF80B20490204604EBCB
:102B1000D0714910049A51431FFA81F82B49098852
:102B2000A1EB080000EBD071C1F34F0909EB0800DD
:102B3000401E80B203902819401E83B20096294699
:102B40004846039AFFF71AFA334652462946484642
:102B5000CDE9014B0097FFF747FF05B0BDE8F08FC7
:102B60002DE9F05F0746884615461E46DDF8289099
:102B700008EB0600401E83B27819401E82B241461F
:102B8000384600F073F800240AE019F814B009EB95
:102B9000440090F801A04BEA0A2000F050F8641CB1
:102BA00005FB06F0A042F0DC08484088401E83B2D6
:102BB00006480088401E82B20021084600F056F800
:102BC000BDE8F09FE698000840000020CC1E0020E1
:102BD000EC9A000810B504464FF48040FE490860A6
:102BE000022008602146FD4801F000F94FF48040C2
:102BF000F949091F086010BD10B504464FF4804024
:102C0000F54908600220091F08602146F34801F0D9
:102C1000EDF84FF48040F049091F086010BD70B511
:102C200005460C462846FFF7D5FFE0B2FFF7E4FF64
:102C300070BD10B5EA49087AFFF7CCFF10BD10B59A
:102C400004464FF48040E44908600220091F0860F0
:102C50002112E24801F0CAF8E1B2E04801F0C6F8FA
:102C60004FF48040DC49091F086010BD2DE9F04198
:102C700004460D4616461F46D949887AFFF7AAFF33
:102C80002012FFF7B9FFE0B2FFF7B6FF3012FFF7EF
:102C9000B3FFF0B2FFF7B0FFD149087BFFF79AFF0F
:102CA0002812FFF7A9FFE8B2FFF7A6FF3812FFF7D7
:102CB000A3FFF8B2FFF7A0FFFFF7BBFFBDE8F0816D
:102CC00070B504460D462B46224629462046FFF79E
:102CD000CDFF70BD70B504460D4629462046FFF76E
:102CE000EFFFC0480088FFF7AAFF70BD70B504462B
:102CF000BB484088401E83B2B9480088401E82B25B
:102D000000210846FFF7B2FF4FF48040B249086047
:102D10000220091F086000250FE0002608E02112AC
:102D2000AE4801F063F8E1B2AC4801F05FF8761C00
:102D3000AB480088B042F2D86D1CA9484088A84230
:102D4000EBD84FF48040A449091F086070BD08B556
:102D500001210820FDF74AFF45F20200ADF800000E
:102D600003208DF8020010208DF8030069469A4870
:102D70001438FDF719FC45F2020197481438FDF7A5
:102D8000C0FC08BD10B54FF4805093490860142072
:102D900003F05EFC4FF480508F49091F0860142037
:102DA00003F056FC10BD10B504462A208C4948811A
:102DB0002B2088812C20088134B1012C0DD0022CCD
:102DC00014D0032C24D11AE0F020854908804880D3
:102DD00008213620FFF723FF1BE0F0208049088000
:102DE000488068213620FFF71AFF12E0F0207C4966
:102DF00008804880C8213620FFF711FF09E0F02045
:102E0000774908804880A8213620FFF708FF00E0B6
:102E100000BF00BF10BD10B501F00CF8FFF797FF21
:102E2000FFF7B0FFEF20FFF7D5FEEB20FFF7D2FE54
:102E30001420FFF7E1FEFE20FFF7CCFEEF20FFF7A6
:102E4000C9FEEB20FFF7C6FE1420FFF7D5FE842055
:102E5000FFF7C0FE4020FFF7CFFE8520FFF7BAFE48
:102E6000FF20FFF7C9FE8620FFF7B4FEFF20FFF723
:102E7000C3FE8720FFF7AEFEFF20FFF7BDFE8820D0
:102E8000FFF7A8FE0A20FFF7B7FE8920FFF7A2FE92
:102E90002120FFF7B1FE8A20FFF79CFE0020FFF7FC
:102EA000ABFE8B20FFF796FE8020FFF7A5FE8C205F
:102EB000FFF790FE0120FFF79FFE8D20FFF78AFEAF
:102EC0000120FFF799FE8E20FFF784FEFF20FFF719
:102ED00093FE8F20FFF77EFEFF20FFF78DFEB620CA
:102EE000FFF778FE0020FFF787FE2020FFF784FE23
:102EF0003620FFF76FFE0820FFF77EFE3A20FFF72F
:102F000069FE0520FFF778FE9020FFF763FE08209A
:102F1000FFF772FE0820FFF76FFE0820FFF76CFE38
:102F20000820FFF769FEBD20FFF754FE0620FFF7DB
:102F300063FEBC20FFF74EFE0020FFF75DFEFF2082
:102F4000FFF748FE6020FFF757FE0120FFF754FE11
:102F50000420FFF751FEC320FFF73CFE1320FFF7CC
:102F60004BFEC420FFF736FE1320FFF745FEC920B5
:102F7000FFF730FE2220FFF73FFEBE20FFF72AFEBC
:102F80001120FFF739FEE120FFF724FE1020FFF7A4
:102F900033FE0E20FFF730FEDF20FFF71BFE21205F
:102FA000FFF72AFE0C20FFF727FE0220FFF724FE82
:102FB000F020FFF70FFE4520FFF71EFE0920FFF768
:102FC0001BFE0820FFF718FE0820FFF715FE26203D
:102FD000FFF712FE2A2007E0140C014000380040E1
:102FE000CC1E002040000020FFF706FEF120FFF776
:102FF000F1FD4320FFF700FE7020FFF7FDFD72207A
:10300000FFF7FAFD3620FFF7F7FD3720FFF7F4FD55
:103010006F20FFF7F1FDF220FFF7DCFD4520FFF701
:10302000EBFD0920FFF7E8FD0820FFF7E5FD08208C
:10303000FFF7E2FD2620FFF7DFFD2A20FFF7DCFD8A
:10304000F320FFF7C7FD4320FFF7D6FD7020FFF701
:10305000D3FD7220FFF7D0FD3620FFF7CDFD3720DE
:10306000FFF7CAFD6F20FFF7C7FDED20FFF7B2FDA8
:103070001B20FFF7C1FD0B20FFF7BEFDAE20FFF7C1
:10308000A9FD7720FFF7B8FDCD20FFF7A3FD632052
:10309000FFF7B2FD7020FFF79DFD0720FFF7ACFDA5
:1030A0000720FFF7A9FD0420FFF7A6FD0E20FFF77C
:1030B000A3FD0F20FFF7A0FD0920FFF79DFD0720CE
:1030C000FFF79AFD0820FFF797FD0320FFF794FD17
:1030D000E820FFF77FFD3420FFF78EFD6220FFF729
:1030E00079FD1820FFF788FD0D20FFF785FD712081
:1030F000FFF782FDED20FFF77FFD7020FFF77CFDDD
:103100007020FFF779FD1820FFF776FD0F20FFF7FD
:1031100073FD7120FFF770FDEF20FFF76DFD70204C
:10312000FFF76AFD7020FFF767FD6320FFF752FD90
:103130001820FFF761FD1120FFF75EFD7120FFF7FA
:103140005BFDF120FFF758FD7020FFF755FD702063
:10315000FFF752FD1820FFF74FFD1320FFF74CFD3E
:103160007120FFF749FDF320FFF746FD7020FFF7C0
:1031700043FD7020FFF740FD6420FFF72BFD282062
:10318000FFF73AFD2920FFF737FDF120FFF734FD67
:103190000120FFF731FDF120FFF72EFD0020FFF7A2
:1031A0002BFD0720FFF728FD6620FFF713FD3C20CD
:1031B000FFF722FD0020FFF71FFDCD20FFF71CFDCC
:1031C0006720FFF719FD4520FFF716FD4520FFF7A3
:1031D00013FD1020FFF710FD0020FFF70DFD00206C
:1031E000FFF70AFD0020FFF707FD6720FFF7F2FC5D
:1031F0000020FFF701FD3C20FFF7FEFC0020FFF759
:10320000FBFC0020FFF7F8FC0020FFF7F5FC012095
:10321000FFF7F2FC5420FFF7EFFC1020FFF7ECFC67
:103220003220FFF7E9FC9820FFF7E6FC7420FFF757
:10323000D1FC1020FFF7E0FC8520FFF7DDFC8020AB
:10324000FFF7DAFC0020FFF7D7FC0020FFF7D4FCE3
:103250004E20FFF7D1FC0020FFF7CEFC9820FFF7AF
:10326000B9FC3E20FFF7C8FC0720FFF7C5FC35205E
:10327000FFF7B0FC2120FFF7ADFC1120FFF7AAFCFF
:10328000782003F0E5F92920FFF7A4FC0020FFF7E0
:103290008AFD4FF6FF70FFF729FD10BD3EB50446CD
:1032A000002010211F234FF6FF72CDE9004102904C
:1032B0000C21FFF71DFC3EBD2DE9F04106460F46EF
:1032C00014461D464FF6FF70FD4908803B462246D6
:1032D00039463046FEF789FE2B463246394630469F
:1032E000FEF783FE48F21040F54908806A1E93B24B
:1032F00091B2721C90B22246FEF777FE44F208208B
:10330000EF4908802B46224629463046FEF76DFEDF
:1033100048F21040EA490880631E9AB27B1C99B2B9
:10332000631E98B22B46FEF760FE44F20820E44983
:1033300008802B46224639462046FEF756FEBDE859
:10334000F0813EB54EF67D70FFF7D0FCDD4909886F
:10335000A1F1620404EBD471491062318AB2D949F7
:103360000988A1F1620505EBD571C1F34F00552322
:103370004121FFF7A1FF01201021D3A21F23CDE996
:10338000002102904FF61F0243210020FFF7B0FBFF
:10339000CC490988A1F1620404EBD471491062316F
:1033A0008AB2C8490988A1F1620505EBD571C1F35C
:1033B0004F0073235F21FFF77FFF01201021C6A27A
:1033C0004EF67D73CDE90021029000226121104666
:1033D000FFF78EFBBB490988A1F1620404EBD471AD
:1033E000491062318AB2B7490988A1F1620505EB3B
:1033F000D571C1F34F0091237D21FFF75DFF0120BF
:103400001021B9A24EF67D73CDE9002102901F2252
:103410007F210020FFF76CFBAA490988A1F1620413
:1034200004EBD471491062318AB2A6490988A1F12E
:10343000620505EBD571C1F34F00AF239B21FFF768
:103440003BFF01201021ACA24EF67D73CDE9002197
:1034500002904FF478429D211020FFF749FB40F283
:10346000DC5003F0F5F84FF4FA7003F0F1F83EBDCC
:1034700008B5A5A0FFF712FF0120A6A30C221E216C
:1034800000900846FFF791F808BD0EB54FF6FF70A3
:1034900000908C484088401E83B28A480088401EB5
:1034A00082B200210846FEF769FD012010219BA28F
:1034B0004FF6E073CDE90021029000221E21282062
:1034C000FFF792FA4FF47A7003F0C2F800200090F0
:1034D0007C484088401E83B27A480088401E82B2F1
:1034E00000210846FEF74AFD012010218DA24FF66B
:1034F000E073CDE9002102904FF6FF721E212820D3
:10350000FFF772FA4FF47A7003F0A2F84FF47840A4
:1035100000906C484088401E83B26A480088401E74
:1035200082B200210846FEF729FD012010217FA26A
:103530004FF6E073CDE9002102901F221E212820C2
:10354000FFF752FA4FF4487003F082F84FF4FC6032
:1035500000905C484088401E83B25A480088401E54
:1035600082B200210846FEF709FD0120102170A259
:103570004FF6E073CDE9002102901F221E21282082
:10358000FFF732FA4FF4487003F062F81F20009002
:103590004C484088401E83B24A480088401E82B290
:1035A00000210846FEF7EAFC0120102162A24FF636
:1035B000E073CDE9002102904FF478421E212820CB
:1035C000FFF712FA4FF4487003F042F80EBD2DE9F0
:1035D000F84300245AA0FFF761FE4FF6FF700090F9
:1035E00038484088203883B236480088401E82B26E
:1035F0001E210020FEF7C2FC00BF4AE0544830F80C
:1036000014002F490880DFF8BCC0BCF8025005EB5D
:10361000D57C4FEA6C0CACF1280C04EB840909EB67
:10362000C409CC440CF11E0C1FFA8CF3DFF894C0D3
:10363000BCF8006006EBD67C4FEA6C0CACF1280CB1
:103640000CEB041C0CF11E0C1FFA8CF2DFF874C09A
:10365000BCF8027007EBD77C4FEA6C0CACF1280C7D
:1036600004EB840909EBC409CC441FFA8CF1DFF8A0
:1036700054C0BCF8008008EBD87C4FEA6C0CACF16D
:10368000280C0CEB041C1FFA8CF0FEF706FD601CE6
:10369000C4B2052CB2DB40F2DC5002F0D9FF4FF689
:1036A000FF70009007484088203883B205480088A2
:1036B000401E82B21E210020FEF760FC002494E030
:1036C00040000020CC1E0020CDBCD0CECFD4CABE3E
:1036D000B2E2CAD400000000B4BFC9ABCCEEB3E480
:1036E000B2E2CAD400000000D6D0CEC4CFD4CABE45
:1036F000B2E2CAD400000000CDBCC6ACCFD4CABE72
:10370000B2E2CAD400000000B2E2CAD4B2E2CAD423
:103710000000000032303A3232000000574849546D
:1037200045000000424C41434B000000524544001C
:10373000475245454E000000424C554500000000F0
:10374000475549BED8D0CECCEEB3E4B2E2CAD400DD
:1037500046000020FE4830F81400FE490880DFF8DB
:10376000F8C3BCF8025005EBD57C4FEA6C0CACF109
:10377000280C04EB840909EBC409CC440CF11E0CA1
:103780001FFA8CF3DFF8D0C3BCF8007007EBD77CCE
:103790004FEA6C0CACF1280C0CEB041C0CF11E0C69
:1037A0001FFA8CF2DFF8B0C3BCF8028008EBD87CBB
:1037B0004FEA6C0CACF1280C04EB840909EBC4094A
:1037C000CC441FFA8CF1DFF890C3BCF8006006EB24
:1037D000D67C4FEA6C0CACF1280C0CEB041C1FFAE5
:1037E0008CF0FEF77AFC601CC4B2052CB2DB40F210
:1037F000DC5002F02DFFBDE8F883F8B50024D7A017
:10380000FFF74CFD4FF6FF700090D34840882038FA
:1038100083B2D1480088401E82B21E210020FEF7EC
:10382000ADFB00BF1DE00020CB4B00905D8805EB99
:10383000D5735B10193B04EB840707EBC407D91958
:10384000C54B1E8806EBD6735B10283BC4EB0417F0
:10385000D819BF4B33F814200F23FEF78FFC601CE0
:10386000C4B2052CDFDB40F2DC5002F0F1FE4FF673
:10387000FF700090B8484088203883B2B64800886E
:10388000401E82B21E210020FEF778FB00241DE0BE
:103890000120B14B00905D8805EBD5735B10193B9F
:1038A00004EB840707EBC407D919AB4B1E8806EB62
:1038B000D6735B10283BC4EB0417D819A44B33F81C
:1038C00014200F23FEF75AFC601CC4B2052CDFDB6A
:1038D00040F2DC5002F0BCFEF8BD0EB5A3A0FFF72D
:1038E000DDFC00200C21A5A24FF6E073CDE90021FC
:1038F00002901F224D213220FFF776F801200C2183
:10390000A4A24FF6E073CDE9002102901F225921B5
:103910003220FFF769F800200C21A4A24FF6E073D3
:10392000CDE9002102901F2265213220FFF75CF8CB
:1039300000201021A3A24FF6E073CDE900210290F0
:103940001F2272213220FFF74FF801201021A1A27F
:103950004FF6E073CDE9002102901F228221322030
:10396000FFF742F8002010219EA24FF6E073CDE948
:10397000002102901F2292213220FFF735F84FF4E8
:10398000966002F065FE0EBD2DE9FC5F00249AA052
:10399000FFF784FC4FF6FF7000906F484088203896
:1039A00083B26D480088401E82B21E210020FEF7BF
:1039B000E5FA00BF60E0664830F814006549088009
:1039C0006548458805EBD57040100C3804EB440180
:1039D00001EBC401084481B25F48068806EBD6704B
:1039E00040100B38C4EB0412104480B2DFF868C1F9
:1039F000CDE90001BCF8027007EBD77C4FEA6C0CF4
:103A0000ACF1270C04EB440B0BEBC40BDC441FFAAA
:103A10008CF3DFF844C1BCF8008008EBD87C4FEA97
:103A20006C0CACF11A0CC4EB041BDC441FFA8CF2D6
:103A3000DFF824C1BCF8029009EBD97C4FEA6C0C8A
:103A4000ACF10C0C04EB440B0BEBC40BDC441FFA85
:103A50008CF1DFF804C1BCF800A00AEBDA7C4FEA75
:103A60006C0CACF1280CC4EB041BDC441FFA8CF08A
:103A7000FEF7D1FB601CC4B2052C9CDB40F2DC508D
:103A800002F0E6FD4FF6FF70009033484088203882
:103A900083B231480088401E82B21E210020FEF70A
:103AA0006DFA0024BDE02A4830F814002949088046
:103AB0002948458805EBD57040100C3804EB4401CB
:103AC00001EBC401084481B22348068806EBD67096
:103AD00040100B38C4EB0412104480B2DFF878C0F9
:103AE000CDE90001BCF8027007EBD77C4FEA6C0C03
:103AF000ACF1270C04EB440B0BEBC40BDC441FFABA
:103B00008CF3DFF854C0BCF8008008EBD87C4FEA97
:103B10006C0CACF11A0CC4EB041BDC441FFA8CF2E5
:103B2000DFF834C0BCF8029009EBD97C4FEA6C0C8A
:103B3000ACF10C0C04EB440B0BEBC40BDC441FFA94
:103B40008CF1DFF814C0BCF800A00AEBDA7C5BE073
:103B50004600002040000020CC1E0020475549BBF5
:103B6000ADD4B2CCEEB3E4B2E2CAD400D3A2CEC498
:103B7000CFD4CABEB2E2CAD40000000036583132F7
:103B80003A61626364656667683031323334353672
:103B900037000000365831323A41424344454647E7
:103BA0004830313233343536370000003658313240
:103BB0003A7E21402324255E262A28295F2B7B7DFF
:103BC0003A000000385831363A616263646530313A
:103BD00032333400385831363A414243444530316B
:103BE00032333400385831363A7E21402324255E62
:103BF000262A28290000000047554920547269CC24
:103C0000EEB3E4B2E2CAD4004FEA6C0CACF1280C7B
:103C1000C4EB041BDC441FFA8CF0FEF71DFB601C98
:103C2000C4B2052CFFF63FAF40F2DC5002F010FDAD
:103C3000BDE8FC9F0EB5AFF25050FFF72FFB002000
:103C4000102156A24FF6E073CDE9002102901F2209
:103C500052212D20FEF7C8FE0120182154A24FF654
:103C6000E073CDE9002102901F2266212D20FEF78E
:103C7000BBFE0120202152A24FF6E073CDE90021C6
:103C800002901F227F212D20FEF7AEFE4FF496609A
:103C900002F0DEFC0EBD0EB5AFF2A450FFF7FEFA47
:103CA0004B4828231A465A2100903220FEF758FF2D
:103CB0000120102147A24FF6E073CDE900210290C8
:103CC0001F2287213E20FEF78FFE414828231A46F7
:103CD0005A2100906420FEF743FF012010213DA2ED
:103CE0004FF6E073CDE9002102901F22872170205A
:103CF000FEF77AFE364828231A465A21009096206D
:103D0000FEF72EFF0120102132A24FF6E073CDE91D
:103D1000002102901F228721A220FEF765FE4FF4AA
:103D2000966002F095FC0EBD10B588B000242A4BB9
:103D30000FCBCDE90623CDE9040100BF26E02046E4
:103D4000FFF731F825A0FFF7A9FA0121102204A8F6
:103D500050F824004FF6E073CDE9012100901F22B6
:103D600023212820FEF740FE194828231A46372130
:103D700000901846FEF7F4FE4FF47A7002F068FCEB
:103D80004FF47A7002F064FC601CC4B2042CD6DBE1
:103D90000020FFF708F808B010BD00003136583198
:103DA000363AC8ABB6AFB5E7D7D3BBB6D3AD000094
:103DB00032345832343AD6D0CEC4B2E2CAD400003B
:103DC00033325833323AD7D6CCE5B2E2CAD4000007
:103DD000F49C00085151000074A90008C6C1C4BB7E
:103DE000D0FDD7AAB2E2CAD400000000024600BF4C
:103DF000108900F002000028FAD0918100BF1089DC
:103E000000F001000028FAD09089C0B27047028803
:103E10004FF6C7731A400280012902D1028802803E
:103E200003E0028842F020020280028842F0400251
:103E30000280704700B587B001210920FCF7D6FE4B
:103E40004FF42040ADF8040003208DF80600182040
:103E50008DF8070001A91648FCF7A6FB012188038D
:103E6000FCF7D1FE0020ADF808004FF48270ADF8E9
:103E70000A000020ADF80C000220ADF80E00012071
:103E8000ADF810004002ADF812000020ADF81400AB
:103E9000ADF816000720ADF8180002A90548FCF798
:103EA000D3FF01210348FDF774F807B000BD0000FF
:103EB000000C01400038004000B587B00121082007
:103EC000FCF794FE01218804FCF79DFE4FF480600E
:103ED000ADF8180018208DF81B0003208DF81A008B
:103EE00006A9FD48FCF760FB4FF40060ADF8180030
:103EF00004208DF81B0006A9F748FCF755FB4FF48A
:103F0000E13002900020ADF80C00ADF80E00ADF8E5
:103F10001000ADF814000C20ADF8120002A9EF4813
:103F2000FDF735F927208DF8040000208DF80500F5
:103F300002208DF8060001208DF8070001A8FCF78B
:103F400008FA012240F22551E448FDF7B8F90121B1
:103F5000E248FDF7A8F907B000BD08B50121082027
:103F6000FCF744FE4FF48070ADF8000004208DF89B
:103F7000030002208DF802006946D748FCF714FBC5
:103F80004FF48070ADF8000010208DF8030003207E
:103F90008DF802006946D048FCF706FB4FF48071AB
:103FA000CD48FCF7AEFB08BD10B5CDA1CB48FDF761
:103FB00003FFCD4802F068FBCCA1C848FDF7FCFE2A
:103FC000C94802F061FBCDA1C448FDF7F5FEC64823
:103FD00002F05AFB10BD10B5FFF76EFFFFF7BDFFF3
:103FE00010BD10B54FF4FA61CF4802F032FD002049
:103FF000CE49088010BDCD48008808B9012070471F
:10400000CA480088CA490988884203D10020C749A4
:104010000880F4E7C5480088C54908800120EEE71C
:1040200070B504460D46FA262146AC48FDF7C4FE9D
:104030000EE0FFF7E0FF40B92946BB4802F014FD4F
:1040400018B1FFF7CEFF002070BD0A2002F000FB80
:10405000301EA6F10101CEB2EBD10120F4E710B57C
:10406000FFF7BFFF00BF9FA1B2A0FFF7D9FF002855
:10407000F9D1B1A003F08AF900BFB5A1B5A0FFF74F
:10408000CFFF0028F9D1B7A003F080F900BFB0A19D
:1040900093A0FFF7C5FF0028F9D1B6A003F076F989
:1040A00000BF90A1B7A0FFF7BBFF0028F9D14FF4E4
:1040B000FA7002F0CDFA00BF8AA1B5A0FFF7B0FFF9
:1040C0000028F9D14FF4FA7002F0C2FAB4A003F05C
:1040D0005DF900BF9EA1BBA0FFF7A2FF0028F9D1A8
:1040E000BCA003F053F900BF99A1C2A0FFF798FF4D
:1040F0000028F9D1C3A003F049F900BF94A1C9A0D9
:10410000FFF78EFF0028F9D1CEA003F03FF910BDD4
:1041100070B504460D4600BF052002F099FA201E36
:10412000A4F101018CB2F7D17F49284602F0C3FC0B
:104130002146CCA003F02AF9284670BD30B589B0DD
:1041400004460D46FFF74DFFC9A101A803F02EF963
:10415000CBA101A8FFF764FF30B9CAA003F016F99C
:1041600021465E48FDF728FECDA003F00FF909B007
:1041700030BD10B5FFF773FFFFF733FF00BFCFA1CE
:10418000D0A0FFF74DFF0028F9D1D9A003F0FEF829
:1041900000BF6FA1DDA0FFF743FF0028F9D1DFA02A
:1041A00003F0F4F84D21E348FFF7C8FFE2A003F065
:1041B000EDF8E6494FF49670FFF7AAFFE4A003F08C
:1041C000E5F8FFF70EFF00BF46A15AA0FFF728FF52
:1041D0000028F9D1E3A003F0D9F810BD2DE9F0478C
:1041E00006460C461546304602F024FD42F2107198
:1041F00090FBF1FA204602F01DFD642190FBF1F8DE
:10420000284602F017FD81464FF461600AFB00F07A
:10421000C8EB081100EB810000EB09073846BDE848
:10422000F0872DE9FC4105460020009001902F46C3
:10423000002405E038780DF804007F1C601CC4B22F
:10424000042CF7DB684602F0F5FC06463046BDE874
:10425000FC8170B50446204602F0ECFCC74990FB97
:10426000F1F5284670BD70B50446204602F0E2FC28
:10427000C34990FBF1F5284670BD2DE9F047C1A177
:10428000B24802F0F1FB0446002C24D004F11105E1
:10429000AE1EAF1F04F1130804F1150904F1170A4B
:1042A0002846FFF7E0FFBA4908603046FFF7D1FF24
:1042B000B84908603846FFF7B4FFB749086052466E
:1042C00049464046FFF78AFFB4490860084600683F
:1042D0004FF4616164E187E1000C01400048004057
:1042E00041540D0A0000000020A1070041542B4357
:1042F000574D4F44453D330D0A00000041542B43B8
:10430000575341503D22455350383236365F303096
:1043100031222C2231323334353637383930222CA1
:10432000312C330D0A000000DA1E00205C00002052
:104330005E0000202B2B2B00302EBBD6B8B4B3F67A
:10434000B3A7C9E8D6C3B3C9B9A60D0A00000000D7
:104350004F4B000041542B524553544F52450D0AC8
:1043600000000000312E4154D3A6B4F0B3C9B9A661
:104370000D0A0000322E525354B8B4CEBBB3C9B9A3
:10438000A60D0A0041542B5253540D0A00000000A0
:1043900041542B434950434C4F53450D0A000000F4
:1043A000332E43574D4F4445C9E8D6C3B9A4D7F778
:1043B000C4A3CABDA3ACB1A3B4E6B5BD466C6173DA
:1043C000680D0A0041542B43574D4F44453D310D74
:1043D0000A000000342E41542B4349504D5558B526
:1043E000A5C1ACBDD3C4A3CABDC9E8D6C3B3C9B9BE
:1043F000A60D0A0041542B4349504D55583D300DF0
:104400000A000000352ED1B0D5D2B6D4D3A6B5C49B
:1044100057494649C3FBB3C6BACDC3DCC2EB0D0A4C
:104420000000000041542B43574A41503D226D7516
:104430006D75222C22313532373031323933220D2D
:104440000A000000362E455350383236365F496E2A
:104450006974C1ACBDD357494649B3C9B9A60D0A61
:1044600000000000CCE1C8A1D6D025640000000007
:1044700041542B43495053454E440D0A000000005F
:104480003E000000382EBFAACABCB4A6D3DACDB80D
:10449000B4ABB7A2CBCDD7B4CCAC210D0A00000091
:1044A000382E352EBFAACABCB4A6D3DACDB8B4AB69
:1044B000B7A2CBCDCDEAB1CF210D0A00434F4E4E6E
:1044C0004543540041542B43495053544152543DA9
:1044D00022544350222C227175616E2E73756E69C1
:1044E0006E672E636F6D222C38300D0A00000000BD
:1044F000362EB7C3CECACBD5C4FEB7FECEF1C6F7B3
:10450000B3C9B9A6204F4B0D0A00000041542B43FC
:1045100049504D4F44453D310D0A0000372EBFAA8A
:10452000C6F4CDB8B4ABC4A3CABDB3C9B9A6204FB5
:104530004B0D0A005CAE0008382E3920CAFDBEDDE6
:10454000BBF1C8A1B3C9B9A60D0A0000AA26002074
:10455000382E393920CCE1C8A1CAFDBEDDB3C9B9B6
:10456000A60D0A00392ECDCBB3F6CDB8B4ABC4A39B
:10457000CABDB3C9B9A6204F4B0D0A0000E1F5052D
:1045800040420F0073797354696D6531000000007B
:104590006000002064000020680000206C00002003
:1045A00090FBF1F027490860274800684FF46161EB
:1045B00090FBF1F201FB12003C2190FBF1F023494A
:1045C0000860214800684FF4616190FBF1F201FB43
:1045D00012003C2190FBF1F201FB12001C49086023
:1045E0001CA002F0D3FE02E020A002F0CFFEBDE846
:1045F000F08710B540F225512048FCF745FFF8B18F
:104600001F480088B0F5FA6F02D300201C490880CB
:104610001A48FCF7B9FEC4B221461A48FDF787FBD9
:104620001648001D0088C1B2154802880088401C49
:10463000134B18801448815420211048FCF71BFFAD
:1046400010BD0000500000206C000020540000202D
:1046500058000020CAB1BCE4BBF1C8A1B2A2B4A604
:10466000C0EDB3C9B9A60D0A00000000CAB1BCE490
:10467000BBF1C8A1CAA7B0DC0D0A00000048004089
:104680005C00002000380140DA1E002008B5402000
:10469000ADF8000003208DF8020010208DF8030013
:1046A0006946FD48FBF780FF08BD08B54020ADF81E
:1046B000000003208DF8020048208DF803006946B1
:1046C000F548FBF771FF08BD08B501211020FCF784
:1046D0008DFA8020ADF8000010208DF80300032033
:1046E0008DF802006946EC48FBF75EFF8021EA483E
:1046F000FCF707F801211020FCF778FA4020ADF80C
:1047000000004021E448FBF7FCFF08BD10B5FFF7AF
:10471000BDFF0120E1490860E149C1F89C01052085
:1047200001F0B2FF0020DD490860052001F0ACFF78
:104730000020DB49C1F89C0110BD10B5FFF7A6FFB2
:104740000020D649091D0860D549C1F89801052007
:1047500001F09AFF0120D149091D0860D049C1F834
:104760009801052001F090FF10BD10B50020CB4945
:10477000091D0860FFF78AFF0020C949C1F89801A8
:10478000022001F081FF0120C449091D08600520B5
:1047900001F07AFF0020C249C1F89C0110BD10B59C
:1047A0000020BE49091D0860FFF770FF0120BC49C9
:1047B000C1F89801022001F067FF0120B749091DE7
:1047C0000860022001F060FF0020B549C1F89C019B
:1047D00010BD10B50024FFF768FF0120AF49086045
:1047E00001F052FF0120AE49C1F89C0101F04CFFDD
:1047F00007E0601CC4B2FA2C03DDFFF79EFF012026
:1048000010BDA648803800680028F2D1A349091DD0
:10481000086000BFF4E770B504460025FFF736FFD7
:1048200000209E49091D086000BF14E0E0099B4973
:1048300008606006040E01209949C1F89C0102201D
:1048400001F022FF00209549091D0860022001F0B7
:104850001BFF681CC5B2082DE8DB70BD70B50546AE
:1048600000260024FFF721FF00BF17E000208B493E
:10487000091D0860022001F007FF01208849C1F8E6
:104880009C016006040E85488038006808B1601CF1
:10489000C4B2012001F0F8FE701CC6B2082EE5DBA0
:1048A00015B9FFF77CFF01E0FFF75FFF204670BD01
:1048B00070B505460C46FFF729FFA620FFF7ABFFB2
:1048C000FFF787FF2846FFF7A6FFFFF782FF204686
:1048D000FFF7A1FFFFF77DFFFFF72FFF70BD10B5BA
:1048E000FFF7F2FE0B213120FFF7E2FF08212C2019
:1048F000FFF7DEFF08212D20FFF7DAFF80212E20B1
:10490000FFF7D6FF00211E20FFF7D2FF00211F2056
:10491000FFF7CEFF05212020FFF7CAFF10BD70B5BD
:1049200004460025FFF7F2FEA620FFF774FFFFF70D
:1049300050FF05462046FFF76EFFFFF74AFF05468A
:10494000FFF7E4FEA720FFF766FFFFF742FF0546EB
:104950000020FFF783FF0546FFF7EFFE284670BDF6
:104960002DE9FC4105460E461746FFF7CFFEA6206F
:10497000FFF751FFFFF72DFF3220FFF74CFFFFF746
:1049800028FFFFF7C3FEA720FFF745FFFFF721FF32
:1049900000240EE0052C05D10020FFF75FFF0DF885
:1049A000040004E00120FFF759FF0DF80400601C2B
:1049B000C4B2062CEEDBFFF7C0FE9DF800009DF8A8
:1049C000011000EB012000B228809DF802009DF844
:1049D000031000EB012000B230809DF804009DF828
:1049E000051000EB012000B23880BDE8FC812DE904
:1049F000FE4304460D4616461F46002020602860F0
:104A00003060002F45D0804626E06A4601A902A802
:104A1000FFF7A6FFBDF9080002F0AFF98146216853
:104A200002F015F92060BDF9040002F0A6F98146F4
:104A3000296802F00CF92860BDF9000002F09DF928
:104A40008146316802F003F93060052001F000FE74
:104A500008F1010000F0FF08B845D6DB384602F047
:104A600095F981464946206802F049F920603846A8
:104A700002F08CF981464946286802F040F9286026
:104A8000384602F083F981464946306802F037F92A
:104A90003060BDE8FE830000001001409801224212
:104AA000000022422DE9F04705460E460027B84691
:104AB000B946002427E004EB440305EB43031A1D29
:104AC00004EB440305EB4303991C04EB440305EB9F
:104AD0004300FFF745FF04EB440035F8100038446D
:104AE00007B204EB440005EB4000408840440FFA55
:104AF00080F804EB440005EB4000808848440FFA3E
:104B000080F9601CC4B2042CD5DB3846F91707EBDA
:104B10009171891009B2318040464FEAE87108EB83
:104B20009171891009B2718048464FEAE97109EB29
:104B30009171891009B2B180BDE8F0872DE9F0418B
:104B400086B004460D46D64E770C26806680A68039
:104B5000E780278167814FF000084FE029466846CB
:104B6000FFF7A0FFB4F90000B5F90010884202DD9C
:104B7000B4F9000001E0B5F900002080B4F90200AA
:104B8000B5F90210884202DDB4F9020001E0B5F97E
:104B900002006080B4F90400B5F90410884202DD17
:104BA000B4F9040001E0B5F90400A080B4F90600EE
:104BB000B5F90010884202DAB4F9060001E0B5F94F
:104BC0000000E080B4F90800B5F90210884202DA6A
:104BD000B4F9080001E0B5F902002081B4F90A0037
:104BE000B5F90410884202DAB4F90A0001E0B5F917
:104BF0000400608108F101004FFA80F8B8F1320F2B
:104C0000ACDB2088A0816188E181A1882182E088D5
:104C100060822189A1826189E18206B0BDE8F081CC
:104C200030B587B004460D46294601A8FFF73AFF84
:104C30002888288068886880A888A880B5F900102E
:104C4000B4F90020881A002801DB014600E0414247
:104C50001E2904DD2088E0802888208001E020884B
:104C6000E080B5F90210B4F90220881A002801DBAF
:104C7000014600E041421E2904DD618821816888E7
:104C8000608001E061882181B5F90410B4F9042045
:104C9000881A002801DB014600E041421E2904DD9C
:104CA000A1886181A888A08001E0A188618107B006
:104CB00030BDF0B50146B1F90060B1F90670F51BE1
:104CC000002D01DB2E4600E06E4232B2B1F90270D7
:104CD000B1F90860BD1B002D01DB2E4600E06E42DD
:104CE00033B2B1F90470B1F90A60BD1B002D01DBCC
:104CF0002E4600E06E4234B29A4205DDA24203DD48
:104D0000282A01DB012010E0934205DDA34203DDE8
:104D1000282B01DB022008E0944205DD9C4203DDE4
:104D2000282C01DB032000E00020F0BD2DE9F0413C
:104D300005460C46164631462846FFF7FFFE284634
:104D4000FFF7B7FF074631462046FFF769FF37B147
:104D5000012F05D0022F35D0032F7DD164E098E0DC
:104D6000B5F90C20B5F91230D11801EBD1725210FF
:104D700010B2B4F9061081421BDDB4F90010814273
:104D800017DA48490968491C464A11601146096802
:104D9000052916D311460968B1F5FA5F11D84249C1
:104DA0000978491C49B2404A117000213D4A1160FE
:104DB00007E03C490968B1F5FA5F02D90021394A98
:104DC000116066E0B5F90E30B5F91420991801EBC1
:104DD000D172521010B2B4F9081081421BDDB4F93F
:104DE0000210814217DA2F490968491C2D4A1160C7
:104DF00011460968052916D311460968B1F5FA5F0D
:104E000011D829490978491C49B2274A1170002153
:104E1000244A116007E023490968B1F5FA5F02D915
:104E20000021204A116034E0B5F91030B5F91620A0
:104E3000991801EBD172521010B2B4F90A108142E4
:104E40001DDDB4F90410814219DA16490968491CBC
:104E5000144A1160114600E01AE00968052916D3CA
:104E600011460968B1F5FA5F11D80F490978491C54
:104E700049B20D4A117000210A4A116007E0094940
:104E80000968B1F5FA5F02D90021064A116000E015
:104E900000BF00BF044890F90000BDE8F0810000A9
:104EA0000080FFFF780000207400002030B50C4621
:104EB000012213E050F82230114605E04D1E50F853
:104EC000255040F82150491E002904DD4D1E50F8A0
:104ED00025509D42F2DC40F82130521CA242E9DB11
:104EE00030BDF0B503461546012217E051F82240C7
:104EF000104605E0461E51F8266041F82060401E2D
:104F0000002808DD53F82470461E51F8266053F837
:104F10002660B742EEDC41F82040521CAA42E5DB95
:104F2000F0BD2DE9F04F05460C46924698462946BD
:104F300050462268FFF7D5FF4FF0FF3621E0D4F846
:104F400000B0701C2060771C18E055F82710701C0A
:104F500010B94FF0FF3001E055F82600A1EB000931
:104F6000C14503DCC8F10000814506DA55F8271079
:104F70002268501C206045F822107F1C5F45E4DB4E
:104F8000761C2068B042DADC28462168FFF78EFFE5
:104F9000BDE8F08F2DE9F04705461E46089C01202C
:104FA0004FF00008002300274FF0040C4FF00009D9
:104FB000C1F800903DE0BFBB52F82090A14509DD4B
:104FC00052F820A0A0F1010952F82990CA4501DD4C
:104FD0004FF00108B8F1010F2AD152F82090A145F5
:104FE00005DA634503DA4FF00008002320E063454B
:104FF0001BD152F82090A1451ADAA0F1010952F80C
:105000002990A14514DBD1F80090B9F10F0F07DA10
:10501000D1F800A00AF10109C1F8009045F82A0072
:1050200000239846082703E001E05B1C00E07F1E98
:10503000401CA6F101098145BDDCBDE8F0872DE9E2
:10504000F84705460C4616461F46DDE90A9ADDF884
:1050500024803B46324621462846CDF80080FFF7A3
:1050600099FF4B46324621462846FFF75AFF2068F3
:10507000504501DA206800E050462060BDE8F8871E
:105080002DE9FF4FA4B083468846002023900024DA
:1050900005E05BF82410239808442390641C4445E1
:1050A000F7DB2398B0FBF8F02390002408E05BF8CE
:1050B00024102398081A4042C44941F82400641C73
:1050C0004445F4DB002417E0C04951F824200B4686
:1050D000611C53F821100A44A11C53F821100A4402
:1050E000E11C53F821105018C11700EB9171891081
:1050F0001A4642F82410641C922CE5DB0027002499
:1051000004E0B24850F824000744641C962CF8DBF5
:10511000962097FBF0F71E2F00DA1E273C2F00DDAC
:105120003C27002404E0002012A941F82400641C5C
:105130000F2CF8DB0F2004219623A44ACDE900713F
:10514000029021A912A8FFF77AFF00201190219860
:10515000022821DB01240BE012A850F82410601E65
:1051600012AA52F82000091A119808441190641CE0
:1051700021988442F0DB2198401E119991FBF0F0B8
:10518000119040F6B831119891FBF0F1329801601E
:1051900001213398017005E08D49329801600021AA
:1051A0003398017000240BE05BF82400874941F834
:1051B0002400269850F82400864941F82400641CF5
:1051C0004445F1DB21982290002005900026002420
:1051D00004E0002006A941F82400641C052CF8DB3B
:1051E00000240EE012A850F82400962808DD784923
:1051F0002798016000213198017028B0BDE8F08F38
:10520000641C22988442EDDB0024A3E04FF07F4031
:105210000D900C9012A9601C51F8200051F8241038
:10522000401A03287EDD12A850F8245016E0674883
:1052300050F825100C98814204DD644850F8250090
:105240000C900B95634850F825100D98814204DDB1
:10525000604850F825000D90AA466D1C12A9601CEC
:1052600051F82000A842E2DC601C51F820005949A6
:1052700051F8200012A951F82410564A52F8211072
:10528000401A12A951F82410AAEB010148431090CA
:1052900012A9601C51F8200051F82410411A1098EE
:1052A00090FBF1F012A951F8241052F82110084493
:1052B0001090104650F82A101098081A109012A951
:1052C000601C51F82000414951F8200012A951F802
:1052D00024103E4A52F82110401A12A951F82420F5
:1052E0000B99891A48430F9012A9601C51F82000AD
:1052F00051F82410411A0F9890FBF1F012A951F8BF
:105300002410324A52F8211008440F90104650F8E9
:105310002A100F98081A0F900C9910984843C01142
:10532000049000E015E00D990F984843C0110390D8
:10533000039800280DDD052E0BDA049848B164218E
:1053400004984843039990FBF1F006A941F8260020
:10535000761C641C2298401EA0423FF757AF31468E
:1053600006A8FFF7A3FD304606EBD0714FEA6109AE
:10537000B9F1010F0CDDA9F1010106AA52F82110C3
:1053800052F82920881800EBD0714910059103E0EC
:1053900006A850F829000590059802280DDD05980B
:1053A000B8280ADA0C490598085C0E9027990E98DF
:1053B000086001213198017005E0054927980160D6
:1053C00000213198017000BF17E70000AC2A0020CF
:1053D00019FCFFFF042D002084A9000870B50546C4
:1053E0000C4601F08AF9AE2001F035FA01F0C6F959
:1053F00000B111E0284601F02EFA01F0BFF900B12A
:105400000AE0204601F027FA01F0B8F900B103E004
:1054100001F095F9012070BD01F091F90020FAE743
:1054200070B505460C4601F068F9AE2001F013FA9C
:1054300001F0A4F900B119E0284601F00CFA01F0DE
:105440009DF900B112E001F058F9AF2001F003FA24
:1054500001F094F900B109E0002001F029FA207070
:1054600001F0D8F901F06BF9012070BD01F067F986
:105470000020FAE708B501210820FBF7B7FB202040
:10548000ADF8000004208DF8030069466548FBF77D
:105490008BF8C0210220FFF7A1FF08B9002008BD4A
:1054A00000210320FFF79AFF08B90020F7E7002149
:1054B0000420FFF793FF08B90020F0E70021052042
:1054C000FFF78CFF08B90020E9E700210620FFF76D
:1054D00085FF08B90020E2E76F210820FFF77EFF73
:1054E00008B90020DBE703210920FFF777FF08B99F
:1054F0000020D4E72F210A20FFF770FF08B9002011
:10550000CDE717210C20FFF769FF08B90020C6E797
:1055100017210D20FFF762FF08B90020BFE77F21A8
:105520001020FFF75BFF08B90020B8E70120B6E7BD
:10553000F8B504460D460020286020606946FFF754
:105540006FFF69460120FFF76BFF01F0D6F8AE2030
:1055500001F081F901F012F900B155E0072001F0E6
:105560007AF901F00BF900B14EE001F0C6F8AF2076
:1055700001F071F901F002F900B145E0012001F0FC
:1055800097F9064601F025F936042068304420607A
:10559000012001F08DF9064601F01BF93602206862
:1055A00030442060012001F083F9064601F011F932
:1055B000206830442060012001F07AF9064601F0AD
:1055C00008F93604286830442860012001F070F999
:1055D000064601F0FEF836022868304428600120B3
:1055E00001F066F9064601F0F4F8286830442860B6
:1055F0002068C0F3110020602868C0F31100286003
:1056000001F09DF80120F8BD01F099F80020FAE7BB
:1056100010B540210920FFF7E1FE08B9002010BDB8
:105620000120FCE7000C014002460E2A70D2DFE8A0
:1056300002F086071019222B353F49535D67727CB3
:10564000F748405C00F0080008B9002070470120CE
:10565000FCE7F348405C00F0040008B90020F5E7DF
:105660000120F3E7EE48405C00F0020008B900209A
:10567000ECE70120EAE7EA48405C00F0010008B9E5
:105680000020E3E70120E1E7E54B481C185C00F04F
:10569000800008B90020D9E70120D7E7E04B481C7B
:1056A000185C00F0400008B90020CFE70120CDE7EA
:1056B000DB4B481C185C00F0200008B90020C5E74F
:1056C0000120C3E7D64B481C185C00F0100008B955
:1056D0000020BBE70120B9E7D14B481C185C00F063
:1056E000080008B90020B1E70120AFE7CC4B481C07
:1056F000185C00F0040008B90020A7E70120A5E726
:10570000C74B481C185C00F0020010B900209DE750
:1057100015E001209AE7C24B481C185C00F001001C
:1057200008B9002092E7012090E7BD4B881C185C67
:1057300000F0800008B9002088E7012086E70020FB
:1057400084E72DE9FF4F83B00C461F466421039880
:1057500090FBF1F0C0B20190039890FBF1F201FBD5
:105760001200C5B20198132806D00198142803D05E
:10577000002007B0BDE8F08F0198142806D105F18C
:10578000630000EB40001FFA80F904E0681E00EBA4
:1057900040001FFA80F9A24909F10200085C00F0FC
:1057A000600A4FEA6A1A09F10200085C00F01F0B58
:1057B000BAF1010F04D1ABF1010000F0FF0803E0E2
:1057C0000BF11E0000F0FF080A2C07DA601E954955
:1057D000095C05980844401E86B208E0A4F10A005E
:1057E000914931F8101005980844401E86B2022CE9
:1057F00008DDE91705EB91718910A5EB810109B965
:10580000701C86B246453EDBA6EB080086B201243A
:10581000012002900020009049460298FFF704FF03
:1058200010B94FF01D0A01E04FF01E0A7C4911F833
:105830000900C11700EB11714FEA211B1DE0A6EB17
:105840000A0086B20298401CC0B202905C4508D1A2
:105850000098C043C0B20090009820B9601CC4B248
:1058600001E0601CC4B249460298FFF7DDFE10B9A2
:105870004FF01D0A01E04FF01E0A5645DFDA701C9A
:10588000C0B205904FE0A8EB060000F0FF081DB97C
:1058900063251320019001E0681EC5B2A9F1030041
:1058A0001FFA80F90C245E4911F80900C11700EBBA
:1058B00011714FEA211BBBF1000F02D10C200290A5
:1058C00001E00D2002900020009049460298FFF769
:1058D000ABFE10B94FF01D0A01E04FF01E0A1BE0AD
:1058E000A8EB0A0000F0FF080298401EC0B2029028
:1058F000009808B9601EC4B25C4503D10098C0434B
:10590000C0B2009049460298FFF78EFE10B94FF0E2
:105910001D0A01E04FF01E0AD045E1DCAAEB0800A9
:10592000401CC0B20590019807F8010B07F8015B15
:1059300007F8014B0598387001201AE710B50A46A0
:10594000B0F5F86F09DBA0F5F86398B23C2390FB43
:10595000F3F403FB1403D9B20AE0C0F5F86398B27C
:105960003C2390FBF3F403FB1403C3F13C03D9B2D3
:10597000117010BD10B5002305E011F8014B00F8BF
:10598000014B5C1CA3B29342F7DB10BD2DE9FC4137
:1059900005460E4617461C460F2224A12046FFF757
:1059A000E9FF01AB3A4631462846FFF7CAFE08B97F
:1059B000BDE8FC819DF805209DF8041001EBC103B2
:1059C00003EB011102EB81006946FFF7B7FF9DF879
:1059D00000000A2190FBF1F201FB1200174951F877
:1059E0002080022241462046FFF7C4FF9DF80000B8
:1059F0000C2190FBF1F201FB1200114951F82080BB
:105A000002224146A01CFFF7B5FF9DF806000128C1
:105A10001AD102220BA1A01DFFF7ACFF1EE000006F
:105A20003CAA000842AD00084CAD0008BCD7D7D353
:105A3000C4EAD5FDD4C2B3F5D2BB0000DC0000201F
:105A400004010020D5FD00009DF80600401E8C4A90
:105A500052F820100222A01DFFF78CFF9DF80700CE
:105A60000A280EDD9DF807000A2190FBF1F0854918
:105A700051F820800222414604F10A00FFF77AFF24
:105A800005E0022280A104F10A00FFF773FF9DF8F0
:105A90000700401E0A2190FBF1F201FB1200784939
:105AA00051F820800222414604F10C00FFF762FF0A
:105AB00000BF7DE72DE9F04104460D46B4F5FA6FCD
:105AC00003DB40F60200844202DD0020BDE8F081E5
:105AD0000DB10C2D01DD0020F8E7681E4006010E17
